{
    "_format": "hh-sol-artifact-1",
    "contractName": "Prenotation",
    "sourceName": "contracts/Prenotation.sol",
    "abi": [
        {
            "anonymous": false,
            "inputs": [
                {
                    "indexed": true,
                    "internalType": "uint256",
                    "name": "placeId",
                    "type": "uint256"
                }
            ],
            "name": "NewPlace",
            "type": "event"
        },
        {
            "anonymous": false,
            "inputs": [
                {
                    "indexed": true,
                    "internalType": "uint256",
                    "name": "placeId",
                    "type": "uint256"
                },
                {
                    "indexed": true,
                    "internalType": "uint256",
                    "name": "bookingId",
                    "type": "uint256"
                }
            ],
            "name": "newBooking",
            "type": "event"
        },
        {
            "inputs": [],
            "name": "bookingId",
            "outputs": [
                {
                    "internalType": "uint256",
                    "name": "",
                    "type": "uint256"
                }
            ],
            "stateMutability": "view",
            "type": "function"
        },
        {
            "inputs": [
                {
                    "internalType": "uint256",
                    "name": "",
                    "type": "uint256"
                }
            ],
            "name": "bookings",
            "outputs": [
                {
                    "internalType": "uint256",
                    "name": "placeId",
                    "type": "uint256"
                },
                {
                    "internalType": "uint256",
                    "name": "checkInDate",
                    "type": "uint256"
                },
                {
                    "internalType": "uint256",
                    "name": "checkOutDate",
                    "type": "uint256"
                },
                {
                    "internalType": "address",
                    "name": "user",
                    "type": "address"
                }
            ],
            "stateMutability": "view",
            "type": "function"
        },
        {
            "inputs": [
                {
                    "internalType": "uint256",
                    "name": "_placeId",
                    "type": "uint256"
                }
            ],
            "name": "markPropertyAsInactive",
            "outputs": [],
            "stateMutability": "nonpayable",
            "type": "function"
        },
        {
            "inputs": [],
            "name": "placeId",
            "outputs": [
                {
                    "internalType": "uint256",
                    "name": "",
                    "type": "uint256"
                }
            ],
            "stateMutability": "view",
            "type": "function"
        },
        {
            "inputs": [
                {
                    "internalType": "uint256",
                    "name": "",
                    "type": "uint256"
                }
            ],
            "name": "places",
            "outputs": [
                {
                    "internalType": "string",
                    "name": "name",
                    "type": "string"
                },
                {
                    "internalType": "string",
                    "name": "description",
                    "type": "string"
                },
                {
                    "internalType": "bool",
                    "name": "isActive",
                    "type": "bool"
                },
                {
                    "internalType": "uint256",
                    "name": "price",
                    "type": "uint256"
                },
                {
                    "internalType": "address",
                    "name": "owner",
                    "type": "address"
                }
            ],
            "stateMutability": "view",
            "type": "function"
        },
        {
            "inputs": [
                {
                    "internalType": "string",
                    "name": "name",
                    "type": "string"
                },
                {
                    "internalType": "string",
                    "name": "description",
                    "type": "string"
                },
                {
                    "internalType": "uint256",
                    "name": "price",
                    "type": "uint256"
                }
            ],
            "name": "rentOutplace",
            "outputs": [],
            "stateMutability": "nonpayable",
            "type": "function"
        },
        {
            "inputs": [
                {
                    "internalType": "uint256",
                    "name": "_placeId",
                    "type": "uint256"
                },
                {
                    "internalType": "uint256",
                    "name": "checkInDate",
                    "type": "uint256"
                },
                {
                    "internalType": "uint256",
                    "name": "checkOutDate",
                    "type": "uint256"
                }
            ],
            "name": "rentPlace",
            "outputs": [],
            "stateMutability": "payable",
            "type": "function"
        }
    ],
    "bytecode": "0x608060405234801561001057600080fd5b50611283806100206000396000f3fe6080604052600436106100705760003560e01c80638681efa91161004e5780638681efa9146101095780639ddc444c14610125578063b3e3f80314610150578063e557bb4e1461017957610070565b80630a10df7c146100755780631dab301e146100a057806376d713c2146100e0575b600080fd5b34801561008157600080fd5b5061008a6101ba565b6040516100979190610f28565b60405180910390f35b3480156100ac57600080fd5b506100c760048036038101906100c29190610c43565b6101c0565b6040516100d79493929190610f43565b60405180910390f35b3480156100ec57600080fd5b5061010760048036038101906101029190610bc4565b610210565b005b610123600480360381019061011e9190610c6c565b6103f2565b005b34801561013157600080fd5b5061013a6105c1565b6040516101479190610f28565b60405180910390f35b34801561015c57600080fd5b5061017760048036038101906101729190610c43565b6105c7565b005b34801561018557600080fd5b506101a0600480360381019061019b9190610c43565b61069d565b6040516101b1959493929190610e47565b60405180910390f35b60025481565b60036020528060005260406000206000915090508060000154908060010154908060020154908060030160009054906101000a900473ffffffffffffffffffffffffffffffffffffffff16905084565b60006040518060c001604052808581526020018481526020016001151581526020018381526020013373ffffffffffffffffffffffffffffffffffffffff16815260200161016d67ffffffffffffffff811115610296577f4e487b7100000000000000000000000000000000000000000000000000000000600052604160045260246000fd5b6040519080825280602002602001820160405280156102c45781602001602082028036833780820191505090505b50815250905080600160008054815260200190815260200160002060008201518160000190805190602001906102fb9291906109fe565b5060208201518160010190805190602001906103189291906109fe565b5060408201518160020160006101000a81548160ff0219169083151502179055506060820151816003015560808201518160040160006101000a81548173ffffffffffffffffffffffffffffffffffffffff021916908373ffffffffffffffffffffffffffffffffffffffff16021790555060a08201518160050190805190602001906103a6929190610a84565b509050506000808154809291906103bc9061114f565b919050557f100080c19ad2a895ca33338a0c51be1480a195ed9c9f4340b3f10c4664929aa160405160405180910390a250505050565b6000600160008581526020019081526020016000209050600115158160020160009054906101000a900460ff16151514610461576040517f08c379a000000000000000000000000000000000000000000000000000000000815260040161045890610f08565b60405180910390fd5b60008390505b8281101561052557600115158260050182815481106104af577f4e487b7100000000000000000000000000000000000000000000000000000000600052603260045260246000fd5b90600052602060002090602091828204019190069054906101000a900460ff1615151415610512576040517f08c379a000000000000000000000000000000000000000000000000000000000815260040161050990610ec8565b60405180910390fd5b808061051d9061114f565b915050610467565b508282610532919061105f565b81600301546105419190611005565b3414610582576040517f08c379a000000000000000000000000000000000000000000000000000000000815260040161057990610ea8565b60405180910390fd5b6105b08160040160009054906101000a900473ffffffffffffffffffffffffffffffffffffffff1634610810565b6105bb84848461085b565b50505050565b60005481565b3373ffffffffffffffffffffffffffffffffffffffff166001600083815260200190815260200160002060040160009054906101000a900473ffffffffffffffffffffffffffffffffffffffff1673ffffffffffffffffffffffffffffffffffffffff161461066b576040517f08c379a000000000000000000000000000000000000000000000000000000000815260040161066290610ee8565b60405180910390fd5b60006001600083815260200190815260200160002060020160006101000a81548160ff02191690831515021790555050565b60016020528060005260406000206000915090508060000180546106c09061111d565b80601f01602080910402602001604051908101604052809291908181526020018280546106ec9061111d565b80156107395780601f1061070e57610100808354040283529160200191610739565b820191906000526020600020905b81548152906001019060200180831161071c57829003601f168201915b50505050509080600101805461074e9061111d565b80601f016020809104026020016040519081016040528092919081815260200182805461077a9061111d565b80156107c75780601f1061079c576101008083540402835291602001916107c7565b820191906000526020600020905b8154815290600101906020018083116107aa57829003601f168201915b5050505050908060020160009054906101000a900460ff16908060030154908060040160009054906101000a900473ffffffffffffffffffffffffffffffffffffffff16905085565b8173ffffffffffffffffffffffffffffffffffffffff166108fc829081150290604051600060405180830381858888f19350505050158015610856573d6000803e3d6000fd5b505050565b600060405180608001604052808581526020018481526020018381526020013373ffffffffffffffffffffffffffffffffffffffff1681525090508060036000600254815260200190815260200160002060008201518160000155602082015181600101556040820151816002015560608201518160030160006101000a81548173ffffffffffffffffffffffffffffffffffffffff021916908373ffffffffffffffffffffffffffffffffffffffff160217905550905050600060016000868152602001908152602001600020905060008490505b838110156109b3576001826005018281548110610977577f4e487b7100000000000000000000000000000000000000000000000000000000600052603260045260246000fd5b90600052602060002090602091828204019190066101000a81548160ff02191690831515021790555080806109ab9061114f565b915050610931565b506000808154809291906109c69061114f565b91905055857f699cc1d1fcf283d9deb13ca1794df84baedaa02ddfd3abe578c4735d358ec3ec60405160405180910390a35050505050565b828054610a0a9061111d565b90600052602060002090601f016020900481019282610a2c5760008555610a73565b82601f10610a4557805160ff1916838001178555610a73565b82800160010185558215610a73579182015b82811115610a72578251825591602001919060010190610a57565b5b509050610a809190610b2a565b5090565b82805482825590600052602060002090601f01602090048101928215610b195791602002820160005b83821115610aea57835183826101000a81548160ff0219169083151502179055509260200192600101602081600001049283019260010302610aad565b8015610b175782816101000a81549060ff0219169055600101602081600001049283019260010302610aea565b505b509050610b269190610b2a565b5090565b5b80821115610b43576000816000905550600101610b2b565b5090565b6000610b5a610b5584610fb9565b610f88565b905082815260208101848484011115610b7257600080fd5b610b7d8482856110db565b509392505050565b600082601f830112610b9657600080fd5b8135610ba6848260208601610b47565b91505092915050565b600081359050610bbe81611236565b92915050565b600080600060608486031215610bd957600080fd5b600084013567ffffffffffffffff811115610bf357600080fd5b610bff86828701610b85565b935050602084013567ffffffffffffffff811115610c1c57600080fd5b610c2886828701610b85565b9250506040610c3986828701610baf565b9150509250925092565b600060208284031215610c5557600080fd5b6000610c6384828501610baf565b91505092915050565b600080600060608486031215610c8157600080fd5b6000610c8f86828701610baf565b9350506020610ca086828701610baf565b9250506040610cb186828701610baf565b9150509250925092565b610cc481611093565b82525050565b610cd3816110a5565b82525050565b6000610ce482610fe9565b610cee8185610ff4565b9350610cfe8185602086016110ea565b610d0781611225565b840191505092915050565b6000610d1f601e83610ff4565b91507f546865206d6f6e65792073656e7420697320696e73756666696369656e7400006000830152602082019050919050565b6000610d5f602d83610ff4565b91507f506c616365206973206e6f7420617661696c61626c6520666f7220746865207360008301527f656c6563746564206461746573000000000000000000000000000000000000006020830152604082019050919050565b6000610dc5601983610ff4565b91507f54484953204953204e4f5420594f55522050524f5045525459000000000000006000830152602082019050919050565b6000610e05602083610ff4565b91507f706c61636520776974682074686973204944206973206e6f74206163746976656000830152602082019050919050565b610e41816110d1565b82525050565b600060a0820190508181036000830152610e618188610cd9565b90508181036020830152610e758187610cd9565b9050610e846040830186610cca565b610e916060830185610e38565b610e9e6080830184610cbb565b9695505050505050565b60006020820190508181036000830152610ec181610d12565b9050919050565b60006020820190508181036000830152610ee181610d52565b9050919050565b60006020820190508181036000830152610f0181610db8565b9050919050565b60006020820190508181036000830152610f2181610df8565b9050919050565b6000602082019050610f3d6000830184610e38565b92915050565b6000608082019050610f586000830187610e38565b610f656020830186610e38565b610f726040830185610e38565b610f7f6060830184610cbb565b95945050505050565b6000604051905081810181811067ffffffffffffffff82111715610faf57610fae6111f6565b5b8060405250919050565b600067ffffffffffffffff821115610fd457610fd36111f6565b5b601f19601f8301169050602081019050919050565b600081519050919050565b600082825260208201905092915050565b6000611010826110d1565b915061101b836110d1565b9250817fffffffffffffffffffffffffffffffffffffffffffffffffffffffffffffffff048311821515161561105457611053611198565b5b828202905092915050565b600061106a826110d1565b9150611075836110d1565b92508282101561108857611087611198565b5b828203905092915050565b600061109e826110b1565b9050919050565b60008115159050919050565b600073ffffffffffffffffffffffffffffffffffffffff82169050919050565b6000819050919050565b82818337600083830152505050565b60005b838110156111085780820151818401526020810190506110ed565b83811115611117576000848401525b50505050565b6000600282049050600182168061113557607f821691505b60208210811415611149576111486111c7565b5b50919050565b600061115a826110d1565b91507fffffffffffffffffffffffffffffffffffffffffffffffffffffffffffffffff82141561118d5761118c611198565b5b600182019050919050565b7f4e487b7100000000000000000000000000000000000000000000000000000000600052601160045260246000fd5b7f4e487b7100000000000000000000000000000000000000000000000000000000600052602260045260246000fd5b7f4e487b7100000000000000000000000000000000000000000000000000000000600052604160045260246000fd5b6000601f19601f8301169050919050565b61123f816110d1565b811461124a57600080fd5b5056fea2646970667358221220892a6fd4a65cf1e163b221008495bb7d55e0366969bc95c7975339b6a08f5e1464736f6c63430008000033",
    "linkReferences": {},
    "deployedLinkReferences": {}
}