{
  "_format": "hh-sol-artifact-1",
  "contractName": "Prenotation",
  "sourceName": "contracts/Prenotation.sol",
  "abi": [
    {
      "anonymous": false,
      "inputs": [
        {
          "indexed": true,
          "internalType": "uint256",
          "name": "placeId",
          "type": "uint256"
        }
      ],
      "name": "NewPlace",
      "type": "event"
    },
    {
      "anonymous": false,
      "inputs": [
        {
          "indexed": true,
          "internalType": "uint256",
          "name": "placeId",
          "type": "uint256"
        },
        {
          "indexed": true,
          "internalType": "uint256",
          "name": "bookingId",
          "type": "uint256"
        }
      ],
      "name": "newBooking",
      "type": "event"
    },
    {
      "inputs": [],
      "name": "bookingId",
      "outputs": [
        {
          "internalType": "uint256",
          "name": "",
          "type": "uint256"
        }
      ],
      "stateMutability": "view",
      "type": "function"
    },
    {
      "inputs": [
        {
          "internalType": "uint256",
          "name": "",
          "type": "uint256"
        }
      ],
      "name": "bookings",
      "outputs": [
        {
          "internalType": "uint256",
          "name": "placeId",
          "type": "uint256"
        },
        {
          "internalType": "uint256",
          "name": "checkInDate",
          "type": "uint256"
        },
        {
          "internalType": "uint256",
          "name": "checkOutDate",
          "type": "uint256"
        },
        {
          "internalType": "address",
          "name": "user",
          "type": "address"
        }
      ],
      "stateMutability": "view",
      "type": "function"
    },
    {
      "inputs": [],
      "name": "getPlaceId",
      "outputs": [
        {
          "internalType": "uint256",
          "name": "",
          "type": "uint256"
        }
      ],
      "stateMutability": "view",
      "type": "function"
    },
    {
      "inputs": [
        {
          "internalType": "uint256",
          "name": "_placeId",
          "type": "uint256"
        }
      ],
      "name": "markPropertyAsInactive",
      "outputs": [],
      "stateMutability": "nonpayable",
      "type": "function"
    },
    {
      "inputs": [],
      "name": "placeId",
      "outputs": [
        {
          "internalType": "uint256",
          "name": "",
          "type": "uint256"
        }
      ],
      "stateMutability": "view",
      "type": "function"
    },
    {
      "inputs": [
        {
          "internalType": "uint256",
          "name": "",
          "type": "uint256"
        }
      ],
      "name": "places",
      "outputs": [
        {
          "internalType": "string",
          "name": "name",
          "type": "string"
        },
        {
          "internalType": "string",
          "name": "description",
          "type": "string"
        },
        {
          "internalType": "bool",
          "name": "isActive",
          "type": "bool"
        },
        {
          "internalType": "uint256",
          "name": "price",
          "type": "uint256"
        },
        {
          "internalType": "address",
          "name": "owner",
          "type": "address"
        }
      ],
      "stateMutability": "view",
      "type": "function"
    },
    {
      "inputs": [
        {
          "internalType": "string",
          "name": "name",
          "type": "string"
        },
        {
          "internalType": "string",
          "name": "description",
          "type": "string"
        },
        {
          "internalType": "uint256",
          "name": "price",
          "type": "uint256"
        }
      ],
      "name": "rentOutplace",
      "outputs": [],
      "stateMutability": "nonpayable",
      "type": "function"
    },
    {
      "inputs": [
        {
          "internalType": "uint256",
          "name": "_placeId",
          "type": "uint256"
        },
        {
          "internalType": "uint256",
          "name": "checkInDate",
          "type": "uint256"
        },
        {
          "internalType": "uint256",
          "name": "checkOutDate",
          "type": "uint256"
        }
      ],
      "name": "rentPlace",
      "outputs": [],
      "stateMutability": "payable",
      "type": "function"
    }
  ],
  "bytecode": "0x608060405234801561001057600080fd5b506112c2806100206000396000f3fe60806040526004361061007b5760003560e01c80638681efa91161004e5780638681efa91461013f5780639ddc444c1461015b578063b3e3f80314610186578063e557bb4e146101af5761007b565b80630a10df7c1461008057806315c6f200146100ab5780631dab301e146100d657806376d713c214610116575b600080fd5b34801561008c57600080fd5b506100956101f0565b6040516100a29190610f67565b60405180910390f35b3480156100b757600080fd5b506100c06101f6565b6040516100cd9190610f67565b60405180910390f35b3480156100e257600080fd5b506100fd60048036038101906100f89190610c82565b6101ff565b60405161010d9493929190610f82565b60405180910390f35b34801561012257600080fd5b5061013d60048036038101906101389190610c03565b61024f565b005b61015960048036038101906101549190610cab565b610431565b005b34801561016757600080fd5b50610170610600565b60405161017d9190610f67565b60405180910390f35b34801561019257600080fd5b506101ad60048036038101906101a89190610c82565b610606565b005b3480156101bb57600080fd5b506101d660048036038101906101d19190610c82565b6106dc565b6040516101e7959493929190610e86565b60405180910390f35b60025481565b60008054905090565b60036020528060005260406000206000915090508060000154908060010154908060020154908060030160009054906101000a900473ffffffffffffffffffffffffffffffffffffffff16905084565b60006040518060c001604052808581526020018481526020016001151581526020018381526020013373ffffffffffffffffffffffffffffffffffffffff16815260200161016d67ffffffffffffffff8111156102d5577f4e487b7100000000000000000000000000000000000000000000000000000000600052604160045260246000fd5b6040519080825280602002602001820160405280156103035781602001602082028036833780820191505090505b508152509050806001600080548152602001908152602001600020600082015181600001908051906020019061033a929190610a3d565b506020820151816001019080519060200190610357929190610a3d565b5060408201518160020160006101000a81548160ff0219169083151502179055506060820151816003015560808201518160040160006101000a81548173ffffffffffffffffffffffffffffffffffffffff021916908373ffffffffffffffffffffffffffffffffffffffff16021790555060a08201518160050190805190602001906103e5929190610ac3565b509050506000808154809291906103fb9061118e565b919050557f100080c19ad2a895ca33338a0c51be1480a195ed9c9f4340b3f10c4664929aa160405160405180910390a250505050565b6000600160008581526020019081526020016000209050600115158160020160009054906101000a900460ff161515146104a0576040517f08c379a000000000000000000000000000000000000000000000000000000000815260040161049790610f47565b60405180910390fd5b60008390505b8281101561056457600115158260050182815481106104ee577f4e487b7100000000000000000000000000000000000000000000000000000000600052603260045260246000fd5b90600052602060002090602091828204019190069054906101000a900460ff1615151415610551576040517f08c379a000000000000000000000000000000000000000000000000000000000815260040161054890610f07565b60405180910390fd5b808061055c9061118e565b9150506104a6565b508282610571919061109e565b81600301546105809190611044565b34146105c1576040517f08c379a00000000000000000000000000000000000000000000000000000000081526004016105b890610ee7565b60405180910390fd5b6105ef8160040160009054906101000a900473ffffffffffffffffffffffffffffffffffffffff163461084f565b6105fa84848461089a565b50505050565b60005481565b3373ffffffffffffffffffffffffffffffffffffffff166001600083815260200190815260200160002060040160009054906101000a900473ffffffffffffffffffffffffffffffffffffffff1673ffffffffffffffffffffffffffffffffffffffff16146106aa576040517f08c379a00000000000000000000000000000000000000000000000000000000081526004016106a190610f27565b60405180910390fd5b60006001600083815260200190815260200160002060020160006101000a81548160ff02191690831515021790555050565b60016020528060005260406000206000915090508060000180546106ff9061115c565b80601f016020809104026020016040519081016040528092919081815260200182805461072b9061115c565b80156107785780601f1061074d57610100808354040283529160200191610778565b820191906000526020600020905b81548152906001019060200180831161075b57829003601f168201915b50505050509080600101805461078d9061115c565b80601f01602080910402602001604051908101604052809291908181526020018280546107b99061115c565b80156108065780601f106107db57610100808354040283529160200191610806565b820191906000526020600020905b8154815290600101906020018083116107e957829003601f168201915b5050505050908060020160009054906101000a900460ff16908060030154908060040160009054906101000a900473ffffffffffffffffffffffffffffffffffffffff16905085565b8173ffffffffffffffffffffffffffffffffffffffff166108fc829081150290604051600060405180830381858888f19350505050158015610895573d6000803e3d6000fd5b505050565b600060405180608001604052808581526020018481526020018381526020013373ffffffffffffffffffffffffffffffffffffffff1681525090508060036000600254815260200190815260200160002060008201518160000155602082015181600101556040820151816002015560608201518160030160006101000a81548173ffffffffffffffffffffffffffffffffffffffff021916908373ffffffffffffffffffffffffffffffffffffffff160217905550905050600060016000868152602001908152602001600020905060008490505b838110156109f25760018260050182815481106109b6577f4e487b7100000000000000000000000000000000000000000000000000000000600052603260045260246000fd5b90600052602060002090602091828204019190066101000a81548160ff02191690831515021790555080806109ea9061118e565b915050610970565b50600080815480929190610a059061118e565b91905055857f699cc1d1fcf283d9deb13ca1794df84baedaa02ddfd3abe578c4735d358ec3ec60405160405180910390a35050505050565b828054610a499061115c565b90600052602060002090601f016020900481019282610a6b5760008555610ab2565b82601f10610a8457805160ff1916838001178555610ab2565b82800160010185558215610ab2579182015b82811115610ab1578251825591602001919060010190610a96565b5b509050610abf9190610b69565b5090565b82805482825590600052602060002090601f01602090048101928215610b585791602002820160005b83821115610b2957835183826101000a81548160ff0219169083151502179055509260200192600101602081600001049283019260010302610aec565b8015610b565782816101000a81549060ff0219169055600101602081600001049283019260010302610b29565b505b509050610b659190610b69565b5090565b5b80821115610b82576000816000905550600101610b6a565b5090565b6000610b99610b9484610ff8565b610fc7565b905082815260208101848484011115610bb157600080fd5b610bbc84828561111a565b509392505050565b600082601f830112610bd557600080fd5b8135610be5848260208601610b86565b91505092915050565b600081359050610bfd81611275565b92915050565b600080600060608486031215610c1857600080fd5b600084013567ffffffffffffffff811115610c3257600080fd5b610c3e86828701610bc4565b935050602084013567ffffffffffffffff811115610c5b57600080fd5b610c6786828701610bc4565b9250506040610c7886828701610bee565b9150509250925092565b600060208284031215610c9457600080fd5b6000610ca284828501610bee565b91505092915050565b600080600060608486031215610cc057600080fd5b6000610cce86828701610bee565b9350506020610cdf86828701610bee565b9250506040610cf086828701610bee565b9150509250925092565b610d03816110d2565b82525050565b610d12816110e4565b82525050565b6000610d2382611028565b610d2d8185611033565b9350610d3d818560208601611129565b610d4681611264565b840191505092915050565b6000610d5e601e83611033565b91507f546865206d6f6e65792073656e7420697320696e73756666696369656e7400006000830152602082019050919050565b6000610d9e602d83611033565b91507f506c616365206973206e6f7420617661696c61626c6520666f7220746865207360008301527f656c6563746564206461746573000000000000000000000000000000000000006020830152604082019050919050565b6000610e04601983611033565b91507f54484953204953204e4f5420594f55522050524f5045525459000000000000006000830152602082019050919050565b6000610e44602083611033565b91507f706c61636520776974682074686973204944206973206e6f74206163746976656000830152602082019050919050565b610e8081611110565b82525050565b600060a0820190508181036000830152610ea08188610d18565b90508181036020830152610eb48187610d18565b9050610ec36040830186610d09565b610ed06060830185610e77565b610edd6080830184610cfa565b9695505050505050565b60006020820190508181036000830152610f0081610d51565b9050919050565b60006020820190508181036000830152610f2081610d91565b9050919050565b60006020820190508181036000830152610f4081610df7565b9050919050565b60006020820190508181036000830152610f6081610e37565b9050919050565b6000602082019050610f7c6000830184610e77565b92915050565b6000608082019050610f976000830187610e77565b610fa46020830186610e77565b610fb16040830185610e77565b610fbe6060830184610cfa565b95945050505050565b6000604051905081810181811067ffffffffffffffff82111715610fee57610fed611235565b5b8060405250919050565b600067ffffffffffffffff82111561101357611012611235565b5b601f19601f8301169050602081019050919050565b600081519050919050565b600082825260208201905092915050565b600061104f82611110565b915061105a83611110565b9250817fffffffffffffffffffffffffffffffffffffffffffffffffffffffffffffffff0483118215151615611093576110926111d7565b5b828202905092915050565b60006110a982611110565b91506110b483611110565b9250828210156110c7576110c66111d7565b5b828203905092915050565b60006110dd826110f0565b9050919050565b60008115159050919050565b600073ffffffffffffffffffffffffffffffffffffffff82169050919050565b6000819050919050565b82818337600083830152505050565b60005b8381101561114757808201518184015260208101905061112c565b83811115611156576000848401525b50505050565b6000600282049050600182168061117457607f821691505b6020821081141561118857611187611206565b5b50919050565b600061119982611110565b91507fffffffffffffffffffffffffffffffffffffffffffffffffffffffffffffffff8214156111cc576111cb6111d7565b5b600182019050919050565b7f4e487b7100000000000000000000000000000000000000000000000000000000600052601160045260246000fd5b7f4e487b7100000000000000000000000000000000000000000000000000000000600052602260045260246000fd5b7f4e487b7100000000000000000000000000000000000000000000000000000000600052604160045260246000fd5b6000601f19601f8301169050919050565b61127e81611110565b811461128957600080fd5b5056fea264697066735822122012af38d8ed8485a00717a3d9f8d5397f10604f2ec4aab5cc94f909cd7bc50b3f64736f6c63430008000033",
  "linkReferences": {},
  "deployedLinkReferences": {}
}